{
  "_format": "hh-sol-artifact-1",
  "contractName": "contractApi",
  "sourceName": "contracts/contractApi.sol",
  "abi": [
    {
      "anonymous": false,
      "inputs": [
        {
          "indexed": true,
          "internalType": "string",
          "name": "formId",
          "type": "string"
        },
        {
          "indexed": true,
          "internalType": "address",
          "name": "respondent",
          "type": "address"
        },
        {
          "indexed": false,
          "internalType": "string",
          "name": "responseData",
          "type": "string"
        }
      ],
      "name": "ResponseAdded",
      "type": "event"
    },
    {
      "anonymous": false,
      "inputs": [
        {
          "indexed": true,
          "internalType": "uint256",
          "name": "responseId",
          "type": "uint256"
        }
      ],
      "name": "ResponseDeleted",
      "type": "event"
    },
    {
      "anonymous": false,
      "inputs": [
        {
          "indexed": true,
          "internalType": "uint256",
          "name": "responseId",
          "type": "uint256"
        },
        {
          "indexed": false,
          "internalType": "string",
          "name": "newResponseData",
          "type": "string"
        }
      ],
      "name": "ResponseUpdated",
      "type": "event"
    },
    {
      "inputs": [
        {
          "internalType": "string",
          "name": "_formId",
          "type": "string"
        },
        {
          "internalType": "string",
          "name": "_responseData",
          "type": "string"
        }
      ],
      "name": "addResponse",
      "outputs": [],
      "stateMutability": "nonpayable",
      "type": "function"
    },
    {
      "inputs": [
        {
          "internalType": "uint256",
          "name": "_responseId",
          "type": "uint256"
        }
      ],
      "name": "deleteResponse",
      "outputs": [],
      "stateMutability": "nonpayable",
      "type": "function"
    },
    {
      "inputs": [],
      "name": "getAllResponses",
      "outputs": [
        {
          "components": [
            {
              "internalType": "string",
              "name": "formId",
              "type": "string"
            },
            {
              "internalType": "address",
              "name": "respondent",
              "type": "address"
            },
            {
              "internalType": "string",
              "name": "responseData",
              "type": "string"
            }
          ],
          "internalType": "struct contractApi.Response[]",
          "name": "",
          "type": "tuple[]"
        }
      ],
      "stateMutability": "view",
      "type": "function"
    },
    {
      "inputs": [
        {
          "internalType": "uint256",
          "name": "_responseId",
          "type": "uint256"
        }
      ],
      "name": "getResponse",
      "outputs": [
        {
          "components": [
            {
              "internalType": "string",
              "name": "formId",
              "type": "string"
            },
            {
              "internalType": "address",
              "name": "respondent",
              "type": "address"
            },
            {
              "internalType": "string",
              "name": "responseData",
              "type": "string"
            }
          ],
          "internalType": "struct contractApi.Response",
          "name": "",
          "type": "tuple"
        }
      ],
      "stateMutability": "view",
      "type": "function"
    },
    {
      "inputs": [
        {
          "internalType": "string",
          "name": "_formId",
          "type": "string"
        }
      ],
      "name": "getResponsesByForm",
      "outputs": [
        {
          "components": [
            {
              "internalType": "string",
              "name": "formId",
              "type": "string"
            },
            {
              "internalType": "address",
              "name": "respondent",
              "type": "address"
            },
            {
              "internalType": "string",
              "name": "responseData",
              "type": "string"
            }
          ],
          "internalType": "struct contractApi.Response[]",
          "name": "",
          "type": "tuple[]"
        }
      ],
      "stateMutability": "view",
      "type": "function"
    },
    {
      "inputs": [
        {
          "internalType": "address",
          "name": "_respondent",
          "type": "address"
        }
      ],
      "name": "getResponsesByUser",
      "outputs": [
        {
          "components": [
            {
              "internalType": "string",
              "name": "formId",
              "type": "string"
            },
            {
              "internalType": "address",
              "name": "respondent",
              "type": "address"
            },
            {
              "internalType": "string",
              "name": "responseData",
              "type": "string"
            }
          ],
          "internalType": "struct contractApi.Response[]",
          "name": "",
          "type": "tuple[]"
        }
      ],
      "stateMutability": "view",
      "type": "function"
    },
    {
      "inputs": [
        {
          "internalType": "uint256",
          "name": "_responseId",
          "type": "uint256"
        },
        {
          "internalType": "string",
          "name": "_newResponseData",
          "type": "string"
        }
      ],
      "name": "updateResponse",
      "outputs": [],
      "stateMutability": "nonpayable",
      "type": "function"
    }
  ],
  "bytecode": "0x608060405234801561001057600080fd5b50611afb806100206000396000f3fe608060405234801561001057600080fd5b506004361061007d5760003560e01c80639da4576a1161005b5780639da4576a146100ec578063c669fe841461011c578063eb73336614610138578063ee857a5a146101685761007d565b80632963c4ed146100825780636d6dcbe7146100a057806370c18199146100bc575b600080fd5b61008a610184565b60405161009791906113be565b60405180910390f35b6100ba60048036038101906100b5919061142a565b61035d565b005b6100d660048036038101906100d1919061142a565b6104f5565b6040516100e391906114ae565b60405180910390f35b610106600480360381019061010191906114fc565b6106f2565b60405161011391906113be565b60405180910390f35b6101366004803603810190610131919061165e565b610a76565b005b610152600480360381019061014d91906116d6565b610bbd565b60405161015f91906113be565b60405180910390f35b610182600480360381019061017d919061171f565b610f3f565b005b60606000805480602002602001604051908101604052809291908181526020016000905b8282101561035457838290600052602060002090600302016040518060600160405290816000820180546101db906117aa565b80601f0160208091040260200160405190810160405280929190818152602001828054610207906117aa565b80156102545780601f1061022957610100808354040283529160200191610254565b820191906000526020600020905b81548152906001019060200180831161023757829003601f168201915b505050505081526020016001820160009054906101000a900473ffffffffffffffffffffffffffffffffffffffff1673ffffffffffffffffffffffffffffffffffffffff1673ffffffffffffffffffffffffffffffffffffffff1681526020016002820180546102c3906117aa565b80601f01602080910402602001604051908101604052809291908181526020018280546102ef906117aa565b801561033c5780601f106103115761010080835404028352916020019161033c565b820191906000526020600020905b81548152906001019060200180831161031f57829003601f168201915b505050505081525050815260200190600101906101a8565b50505050905090565b8060008054905081106103a5576040517f08c379a000000000000000000000000000000000000000000000000000000000815260040161039c90611839565b60405180910390fd5b3373ffffffffffffffffffffffffffffffffffffffff16600082815481106103d0576103cf611859565b5b906000526020600020906003020160010160009054906101000a900473ffffffffffffffffffffffffffffffffffffffff1673ffffffffffffffffffffffffffffffffffffffff1614610458576040517f08c379a000000000000000000000000000000000000000000000000000000000815260040161044f906118d4565b60405180910390fd5b6000828154811061046c5761046b611859565b5b90600052602060002090600302016000808201600061048b91906110b1565b6001820160006101000a81549073ffffffffffffffffffffffffffffffffffffffff02191690556002820160006104c291906110b1565b5050817fb1b74ac1361fc13c4cffc19ccb29b4a0ae42b753f0d53cc467e6c642c2e6cc7960405160405180910390a25050565b6104fd6110f1565b6000805490508210610544576040517f08c379a000000000000000000000000000000000000000000000000000000000815260040161053b90611839565b60405180910390fd5b6000828154811061055857610557611859565b5b9060005260206000209060030201604051806060016040529081600082018054610581906117aa565b80601f01602080910402602001604051908101604052809291908181526020018280546105ad906117aa565b80156105fa5780601f106105cf576101008083540402835291602001916105fa565b820191906000526020600020905b8154815290600101906020018083116105dd57829003601f168201915b505050505081526020016001820160009054906101000a900473ffffffffffffffffffffffffffffffffffffffff1673ffffffffffffffffffffffffffffffffffffffff1673ffffffffffffffffffffffffffffffffffffffff168152602001600282018054610669906117aa565b80601f0160208091040260200160405190810160405280929190818152602001828054610695906117aa565b80156106e25780601f106106b7576101008083540402835291602001916106e2565b820191906000526020600020905b8154815290600101906020018083116106c557829003601f168201915b5050505050815250509050919050565b60606000805b6000805490508110156107a0578373ffffffffffffffffffffffffffffffffffffffff16600082815481106107305761072f611859565b5b906000526020600020906003020160010160009054906101000a900473ffffffffffffffffffffffffffffffffffffffff1673ffffffffffffffffffffffffffffffffffffffff16141561078d57818061078990611923565b9250505b808061079890611923565b9150506106f8565b5060008167ffffffffffffffff8111156107bd576107bc611533565b5b6040519080825280602002602001820160405280156107f657816020015b6107e36110f1565b8152602001906001900390816107db5790505b5090506000805b600080549050811015610a6a578573ffffffffffffffffffffffffffffffffffffffff166000828154811061083557610834611859565b5b906000526020600020906003020160010160009054906101000a900473ffffffffffffffffffffffffffffffffffffffff1673ffffffffffffffffffffffffffffffffffffffff161415610a57576000818154811061089757610896611859565b5b90600052602060002090600302016040518060600160405290816000820180546108c0906117aa565b80601f01602080910402602001604051908101604052809291908181526020018280546108ec906117aa565b80156109395780601f1061090e57610100808354040283529160200191610939565b820191906000526020600020905b81548152906001019060200180831161091c57829003601f168201915b505050505081526020016001820160009054906101000a900473ffffffffffffffffffffffffffffffffffffffff1673ffffffffffffffffffffffffffffffffffffffff1673ffffffffffffffffffffffffffffffffffffffff1681526020016002820180546109a8906117aa565b80601f01602080910402602001604051908101604052809291908181526020018280546109d4906117aa565b8015610a215780601f106109f657610100808354040283529160200191610a21565b820191906000526020600020905b815481529060010190602001808311610a0457829003601f168201915b505050505081525050838381518110610a3d57610a3c611859565b5b60200260200101819052508180610a5390611923565b9250505b8080610a6290611923565b9150506107fd565b50819350505050919050565b600060405180606001604052808481526020013373ffffffffffffffffffffffffffffffffffffffff1681526020018381525090806001815401808255809150506001900390600052602060002090600302016000909190919091506000820151816000019080519060200190610aee929190611128565b5060208201518160010160006101000a81548173ffffffffffffffffffffffffffffffffffffffff021916908373ffffffffffffffffffffffffffffffffffffffff1602179055506040820151816002019080519060200190610b52929190611128565b5050503373ffffffffffffffffffffffffffffffffffffffff1682604051610b7a91906119a8565b60405180910390207fea920d278eada0d418dddcf50ce61a5d9c9304110159bcfc6ef75e093ac47c2d83604051610bb191906119f8565b60405180910390a35050565b60606000805b600080549050811015610c6a5783604051602001610be191906119a8565b6040516020818303038152906040528051906020012060008281548110610c0b57610c0a611859565b5b9060005260206000209060030201600001604051602001610c2c9190611aae565b604051602081830303815290604052805190602001201415610c57578180610c5390611923565b9250505b8080610c6290611923565b915050610bc3565b5060008167ffffffffffffffff811115610c8757610c86611533565b5b604051908082528060200260200182016040528015610cc057816020015b610cad6110f1565b815260200190600190039081610ca55790505b5090506000805b600080549050811015610f335785604051602001610ce591906119a8565b6040516020818303038152906040528051906020012060008281548110610d0f57610d0e611859565b5b9060005260206000209060030201600001604051602001610d309190611aae565b604051602081830303815290604052805190602001201415610f205760008181548110610d6057610d5f611859565b5b9060005260206000209060030201604051806060016040529081600082018054610d89906117aa565b80601f0160208091040260200160405190810160405280929190818152602001828054610db5906117aa565b8015610e025780601f10610dd757610100808354040283529160200191610e02565b820191906000526020600020905b815481529060010190602001808311610de557829003601f168201915b505050505081526020016001820160009054906101000a900473ffffffffffffffffffffffffffffffffffffffff1673ffffffffffffffffffffffffffffffffffffffff1673ffffffffffffffffffffffffffffffffffffffff168152602001600282018054610e71906117aa565b80601f0160208091040260200160405190810160405280929190818152602001828054610e9d906117aa565b8015610eea5780601f10610ebf57610100808354040283529160200191610eea565b820191906000526020600020905b815481529060010190602001808311610ecd57829003601f168201915b505050505081525050838381518110610f0657610f05611859565b5b60200260200101819052508180610f1c90611923565b9250505b8080610f2b90611923565b915050610cc7565b50819350505050919050565b816000805490508110610f87576040517f08c379a0000000000000000000000000000000000000000000000000000000008152600401610f7e90611839565b60405180910390fd5b3373ffffffffffffffffffffffffffffffffffffffff1660008281548110610fb257610fb1611859565b5b906000526020600020906003020160010160009054906101000a900473ffffffffffffffffffffffffffffffffffffffff1673ffffffffffffffffffffffffffffffffffffffff161461103a576040517f08c379a0000000000000000000000000000000000000000000000000000000008152600401611031906118d4565b60405180910390fd5b816000848154811061104f5761104e611859565b5b90600052602060002090600302016002019080519060200190611073929190611128565b50827f5a865a838286319dc8737c7ff856b6c6463128bc9c8ee56e3bfc04fe5db3c2ea836040516110a491906119f8565b60405180910390a2505050565b5080546110bd906117aa565b6000825580601f106110cf57506110ee565b601f0160209004906000526020600020908101906110ed91906111ae565b5b50565b604051806060016040528060608152602001600073ffffffffffffffffffffffffffffffffffffffff168152602001606081525090565b828054611134906117aa565b90600052602060002090601f016020900481019282611156576000855561119d565b82601f1061116f57805160ff191683800117855561119d565b8280016001018555821561119d579182015b8281111561119c578251825591602001919060010190611181565b5b5090506111aa91906111ae565b5090565b5b808211156111c75760008160009055506001016111af565b5090565b600081519050919050565b600082825260208201905092915050565b6000819050602082019050919050565b600081519050919050565b600082825260208201905092915050565b60005b83811015611231578082015181840152602081019050611216565b83811115611240576000848401525b50505050565b6000601f19601f8301169050919050565b6000611262826111f7565b61126c8185611202565b935061127c818560208601611213565b61128581611246565b840191505092915050565b600073ffffffffffffffffffffffffffffffffffffffff82169050919050565b60006112bb82611290565b9050919050565b6112cb816112b0565b82525050565b600060608301600083015184820360008601526112ee8282611257565b915050602083015161130360208601826112c2565b506040830151848203604086015261131b8282611257565b9150508091505092915050565b600061133483836112d1565b905092915050565b6000602082019050919050565b6000611354826111cb565b61135e81856111d6565b935083602082028501611370856111e7565b8060005b858110156113ac578484038952815161138d8582611328565b94506113988361133c565b925060208a01995050600181019050611374565b50829750879550505050505092915050565b600060208201905081810360008301526113d88184611349565b905092915050565b6000604051905090565b600080fd5b600080fd5b6000819050919050565b611407816113f4565b811461141257600080fd5b50565b600081359050611424816113fe565b92915050565b6000602082840312156114405761143f6113ea565b5b600061144e84828501611415565b91505092915050565b600060608301600083015184820360008601526114748282611257565b915050602083015161148960208601826112c2565b50604083015184820360408601526114a18282611257565b9150508091505092915050565b600060208201905081810360008301526114c88184611457565b905092915050565b6114d9816112b0565b81146114e457600080fd5b50565b6000813590506114f6816114d0565b92915050565b600060208284031215611512576115116113ea565b5b6000611520848285016114e7565b91505092915050565b600080fd5b600080fd5b7f4e487b7100000000000000000000000000000000000000000000000000000000600052604160045260246000fd5b61156b82611246565b810181811067ffffffffffffffff8211171561158a57611589611533565b5b80604052505050565b600061159d6113e0565b90506115a98282611562565b919050565b600067ffffffffffffffff8211156115c9576115c8611533565b5b6115d282611246565b9050602081019050919050565b82818337600083830152505050565b60006116016115fc846115ae565b611593565b90508281526020810184848401111561161d5761161c61152e565b5b6116288482856115df565b509392505050565b600082601f83011261164557611644611529565b5b81356116558482602086016115ee565b91505092915050565b60008060408385031215611675576116746113ea565b5b600083013567ffffffffffffffff811115611693576116926113ef565b5b61169f85828601611630565b925050602083013567ffffffffffffffff8111156116c0576116bf6113ef565b5b6116cc85828601611630565b9150509250929050565b6000602082840312156116ec576116eb6113ea565b5b600082013567ffffffffffffffff81111561170a576117096113ef565b5b61171684828501611630565b91505092915050565b60008060408385031215611736576117356113ea565b5b600061174485828601611415565b925050602083013567ffffffffffffffff811115611765576117646113ef565b5b61177185828601611630565b9150509250929050565b7f4e487b7100000000000000000000000000000000000000000000000000000000600052602260045260246000fd5b600060028204905060018216806117c257607f821691505b602082108114156117d6576117d561177b565b5b50919050565b600082825260208201905092915050565b7f526573706f6e7365204944206f7574206f6620626f756e647300000000000000600082015250565b60006118236019836117dc565b915061182e826117ed565b602082019050919050565b6000602082019050818103600083015261185281611816565b9050919050565b7f4e487b7100000000000000000000000000000000000000000000000000000000600052603260045260246000fd5b7f556e617574686f72697a65640000000000000000000000000000000000000000600082015250565b60006118be600c836117dc565b91506118c982611888565b602082019050919050565b600060208201905081810360008301526118ed816118b1565b9050919050565b7f4e487b7100000000000000000000000000000000000000000000000000000000600052601160045260246000fd5b600061192e826113f4565b91507fffffffffffffffffffffffffffffffffffffffffffffffffffffffffffffffff821415611961576119606118f4565b5b600182019050919050565b600081905092915050565b6000611982826111f7565b61198c818561196c565b935061199c818560208601611213565b80840191505092915050565b60006119b48284611977565b915081905092915050565b60006119ca826111f7565b6119d481856117dc565b93506119e4818560208601611213565b6119ed81611246565b840191505092915050565b60006020820190508181036000830152611a1281846119bf565b905092915050565b60008190508160005260206000209050919050565b60008154611a3c816117aa565b611a46818661196c565b94506001821660008114611a615760018114611a7257611aa5565b60ff19831686528186019350611aa5565b611a7b85611a1a565b60005b83811015611a9d57815481890152600182019150602081019050611a7e565b838801955050505b50505092915050565b6000611aba8284611a2f565b91508190509291505056fea26469706673582212200fafd07c118c18d08db11e96f44e02bfe62247a79a4c574de7de65bcbeee2b9864736f6c634300080b0033",
  "linkReferences": {},
  "deployedLinkReferences": {}
}